{
    "_format": "hh-sol-artifact-1",
    "contractName": "PK_Ballot",
    "sourceName": "contracts/patrick/PK_Ballot.sol",
    "abi": [
        {
            "inputs": [
                {
                    "internalType": "bytes32[]",
                    "name": "proposalNames",
                    "type": "bytes32[]"
                },
                {
                    "internalType": "address",
                    "name": "_tokenContract",
                    "type": "address"
                },
                {
                    "internalType": "uint256",
                    "name": "_referenceBlock",
                    "type": "uint256"
                }
            ],
            "stateMutability": "nonpayable",
            "type": "constructor"
        },
        {
            "inputs": [],
            "name": "allProposals",
            "outputs": [
                {
                    "components": [
                        {
                            "internalType": "bytes32",
                            "name": "name",
                            "type": "bytes32"
                        },
                        {
                            "internalType": "uint256",
                            "name": "voteCount",
                            "type": "uint256"
                        }
                    ],
                    "internalType": "struct PK_Ballot.Proposal[]",
                    "name": "status_",
                    "type": "tuple[]"
                }
            ],
            "stateMutability": "view",
            "type": "function"
        },
        {
            "inputs": [],
            "name": "buyTokens",
            "outputs": [],
            "stateMutability": "payable",
            "type": "function"
        },
        {
            "inputs": [
                {
                    "internalType": "address",
                    "name": "_to",
                    "type": "address"
                }
            ],
            "name": "delegate",
            "outputs": [],
            "stateMutability": "nonpayable",
            "type": "function"
        },
        {
            "inputs": [
                {
                    "internalType": "address",
                    "name": "_account",
                    "type": "address"
                }
            ],
            "name": "getBalance",
            "outputs": [
                {
                    "internalType": "uint256",
                    "name": "",
                    "type": "uint256"
                }
            ],
            "stateMutability": "view",
            "type": "function"
        },
        {
            "inputs": [],
            "name": "getPastVotes",
            "outputs": [
                {
                    "internalType": "uint256",
                    "name": "",
                    "type": "uint256"
                }
            ],
            "stateMutability": "view",
            "type": "function"
        },
        {
            "inputs": [],
            "name": "getTotalSupply",
            "outputs": [
                {
                    "internalType": "uint256",
                    "name": "",
                    "type": "uint256"
                }
            ],
            "stateMutability": "view",
            "type": "function"
        },
        {
            "inputs": [],
            "name": "getVotes",
            "outputs": [
                {
                    "internalType": "uint256",
                    "name": "",
                    "type": "uint256"
                }
            ],
            "stateMutability": "view",
            "type": "function"
        },
        {
            "inputs": [],
            "name": "owner",
            "outputs": [
                {
                    "internalType": "address",
                    "name": "",
                    "type": "address"
                }
            ],
            "stateMutability": "view",
            "type": "function"
        },
        {
            "inputs": [
                {
                    "internalType": "uint256",
                    "name": "",
                    "type": "uint256"
                }
            ],
            "name": "proposals",
            "outputs": [
                {
                    "internalType": "bytes32",
                    "name": "name",
                    "type": "bytes32"
                },
                {
                    "internalType": "uint256",
                    "name": "voteCount",
                    "type": "uint256"
                }
            ],
            "stateMutability": "view",
            "type": "function"
        },
        {
            "inputs": [],
            "name": "referenceBlock",
            "outputs": [
                {
                    "internalType": "uint256",
                    "name": "",
                    "type": "uint256"
                }
            ],
            "stateMutability": "view",
            "type": "function"
        },
        {
            "inputs": [
                {
                    "internalType": "uint256",
                    "name": "blockNumber",
                    "type": "uint256"
                }
            ],
            "name": "setBlock",
            "outputs": [],
            "stateMutability": "nonpayable",
            "type": "function"
        },
        {
            "inputs": [],
            "name": "tokenContract",
            "outputs": [
                {
                    "internalType": "contract IERC20Votes",
                    "name": "",
                    "type": "address"
                }
            ],
            "stateMutability": "view",
            "type": "function"
        },
        {
            "inputs": [
                {
                    "internalType": "uint256",
                    "name": "proposal",
                    "type": "uint256"
                },
                {
                    "internalType": "uint256",
                    "name": "amount",
                    "type": "uint256"
                }
            ],
            "name": "vote",
            "outputs": [],
            "stateMutability": "nonpayable",
            "type": "function"
        },
        {
            "inputs": [
                {
                    "internalType": "address",
                    "name": "",
                    "type": "address"
                }
            ],
            "name": "votingPowerSpent",
            "outputs": [
                {
                    "internalType": "uint256",
                    "name": "",
                    "type": "uint256"
                }
            ],
            "stateMutability": "view",
            "type": "function"
        },
        {
            "inputs": [],
            "name": "winnerName",
            "outputs": [
                {
                    "internalType": "bytes32",
                    "name": "winnerName_",
                    "type": "bytes32"
                }
            ],
            "stateMutability": "view",
            "type": "function"
        },
        {
            "inputs": [],
            "name": "winningProposal",
            "outputs": [
                {
                    "internalType": "uint256",
                    "name": "winningProposal_",
                    "type": "uint256"
                }
            ],
            "stateMutability": "view",
            "type": "function"
        }
    ],
    "bytecode": "0x60806040523480156200001157600080fd5b50604051620016dc380380620016dc8339818101604052810190620000379190620003c5565b60005b8351811015620000ce576003604051806040016040528086848151811062000067576200006662000440565b5b6020026020010151815260200160008152509080600181540180825580915050600190039060005260206000209060020201600090919091909150600082015181600001556020820151816001015550508080620000c5906200049e565b9150506200003a565b508060008190555081600160006101000a81548173ffffffffffffffffffffffffffffffffffffffff021916908373ffffffffffffffffffffffffffffffffffffffff16021790555033600260006101000a81548173ffffffffffffffffffffffffffffffffffffffff021916908373ffffffffffffffffffffffffffffffffffffffff160217905550505050620004eb565b6000604051905090565b600080fd5b600080fd5b600080fd5b6000601f19601f8301169050919050565b7f4e487b7100000000000000000000000000000000000000000000000000000000600052604160045260246000fd5b620001c5826200017a565b810181811067ffffffffffffffff82111715620001e757620001e66200018b565b5b80604052505050565b6000620001fc62000161565b90506200020a8282620001ba565b919050565b600067ffffffffffffffff8211156200022d576200022c6200018b565b5b602082029050602081019050919050565b600080fd5b6000819050919050565b620002588162000243565b81146200026457600080fd5b50565b60008151905062000278816200024d565b92915050565b6000620002956200028f846200020f565b620001f0565b90508083825260208201905060208402830185811115620002bb57620002ba6200023e565b5b835b81811015620002e85780620002d3888262000267565b845260208401935050602081019050620002bd565b5050509392505050565b600082601f8301126200030a576200030962000175565b5b81516200031c8482602086016200027e565b91505092915050565b600073ffffffffffffffffffffffffffffffffffffffff82169050919050565b6000620003528262000325565b9050919050565b620003648162000345565b81146200037057600080fd5b50565b600081519050620003848162000359565b92915050565b6000819050919050565b6200039f816200038a565b8114620003ab57600080fd5b50565b600081519050620003bf8162000394565b92915050565b600080600060608486031215620003e157620003e06200016b565b5b600084015167ffffffffffffffff81111562000402576200040162000170565b5b6200041086828701620002f2565b9350506020620004238682870162000373565b92505060406200043686828701620003ae565b9150509250925092565b7f4e487b7100000000000000000000000000000000000000000000000000000000600052603260045260246000fd5b7f4e487b7100000000000000000000000000000000000000000000000000000000600052601160045260246000fd5b6000620004ab826200038a565b91507fffffffffffffffffffffffffffffffffffffffffffffffffffffffffffffffff8203620004e057620004df6200046f565b5b600182019050919050565b6111e180620004fb6000396000f3fe6080604052600436106100f35760003560e01c80639017ffd31161008a578063d0febe4c11610059578063d0febe4c1461031b578063d94c8caa14610325578063e2ba53f014610350578063f8b2cb4f1461037b576100f3565b80639017ffd31461025f578063a72003511461028a578063b384abef146102c7578063c4e41b22146102f0576100f3565b80635c19a95c116100c65780635c19a95c146101b7578063609ff1bd146101e057806387cea3ae1461020b5780638da5cb5b14610234576100f3565b8063013cf08b146100f85780630dc9601514610136578063346193b61461016157806355a373d61461018c575b600080fd5b34801561010457600080fd5b5061011f600480360381019061011a9190610be2565b6103b8565b60405161012d929190610c37565b60405180910390f35b34801561014257600080fd5b5061014b6103ec565b6040516101589190610c60565b60405180910390f35b34801561016d57600080fd5b5061017661048f565b6040516101839190610d77565b60405180910390f35b34801561019857600080fd5b506101a1610502565b6040516101ae9190610e18565b60405180910390f35b3480156101c357600080fd5b506101de60048036038101906101d99190610e71565b610528565b005b3480156101ec57600080fd5b506101f56105b8565b6040516102029190610c60565b60405180910390f35b34801561021757600080fd5b50610232600480360381019061022d9190610be2565b610640565b005b34801561024057600080fd5b506102496106da565b6040516102569190610ead565b60405180910390f35b34801561026b57600080fd5b50610274610700565b6040516102819190610c60565b60405180910390f35b34801561029657600080fd5b506102b160048036038101906102ac9190610e71565b6107a7565b6040516102be9190610c60565b60405180910390f35b3480156102d357600080fd5b506102ee60048036038101906102e99190610ec8565b6107bf565b005b3480156102fc57600080fd5b506103056108a6565b6040516103129190610c60565b60405180910390f35b61032361093e565b005b34801561033157600080fd5b5061033a6109d5565b6040516103479190610c60565b60405180910390f35b34801561035c57600080fd5b506103656109db565b6040516103729190610f08565b60405180910390f35b34801561038757600080fd5b506103a2600480360381019061039d9190610e71565b610a0f565b6040516103af9190610c60565b60405180910390f35b600381815481106103c857600080fd5b90600052602060002090600202016000915090508060000154908060010154905082565b6000600160009054906101000a900473ffffffffffffffffffffffffffffffffffffffff1673ffffffffffffffffffffffffffffffffffffffff16639ab24eb0336040518263ffffffff1660e01b81526004016104499190610ead565b602060405180830381865afa158015610466573d6000803e3d6000fd5b505050506040513d601f19601f8201168201806040525081019061048a9190610f38565b905090565b60606003805480602002602001604051908101604052809291908181526020016000905b828210156104f9578382906000526020600020906002020160405180604001604052908160008201548152602001600182015481525050815260200190600101906104b3565b50505050905090565b600160009054906101000a900473ffffffffffffffffffffffffffffffffffffffff1681565b600160009054906101000a900473ffffffffffffffffffffffffffffffffffffffff1673ffffffffffffffffffffffffffffffffffffffff16635c19a95c826040518263ffffffff1660e01b81526004016105839190610ead565b600060405180830381600087803b15801561059d57600080fd5b505af11580156105b1573d6000803e3d6000fd5b5050505050565b6000806000905060005b60038054905081101561063b5781600382815481106105e4576105e3610f65565b5b906000526020600020906002020160010154111561062857600381815481106106105761060f610f65565b5b90600052602060002090600202016001015491508092505b808061063390610fc3565b9150506105c2565b505090565b600260009054906101000a900473ffffffffffffffffffffffffffffffffffffffff1673ffffffffffffffffffffffffffffffffffffffff163373ffffffffffffffffffffffffffffffffffffffff16146106d0576040517f08c379a00000000000000000000000000000000000000000000000000000000081526004016106c790611068565b60405180910390fd5b8060008190555050565b600260009054906101000a900473ffffffffffffffffffffffffffffffffffffffff1681565b6000600160009054906101000a900473ffffffffffffffffffffffffffffffffffffffff1673ffffffffffffffffffffffffffffffffffffffff16633a46b1a8336000546040518363ffffffff1660e01b8152600401610761929190611088565b602060405180830381865afa15801561077e573d6000803e3d6000fd5b505050506040513d601f19601f820116820180604052508101906107a29190610f38565b905090565b60046020528060005260406000206000915090505481565b60006107ca33610ab4565b90508181101561080f576040517f08c379a000000000000000000000000000000000000000000000000000000000815260040161080690611123565b60405180910390fd5b81600460003373ffffffffffffffffffffffffffffffffffffffff1673ffffffffffffffffffffffffffffffffffffffff168152602001908152602001600020600082825461085e9190611143565b92505081905550816003848154811061087a57610879610f65565b5b9060005260206000209060020201600101600082825461089a9190611143565b92505081905550505050565b6000600160009054906101000a900473ffffffffffffffffffffffffffffffffffffffff1673ffffffffffffffffffffffffffffffffffffffff166318160ddd6040518163ffffffff1660e01b8152600401602060405180830381865afa158015610915573d6000803e3d6000fd5b505050506040513d601f19601f820116820180604052508101906109399190610f38565b905090565b6000349050600160009054906101000a900473ffffffffffffffffffffffffffffffffffffffff1673ffffffffffffffffffffffffffffffffffffffff166340c10f1933836040518363ffffffff1660e01b81526004016109a0929190611088565b600060405180830381600087803b1580156109ba57600080fd5b505af11580156109ce573d6000803e3d6000fd5b5050505050565b60005481565b600060036109e76105b8565b815481106109f8576109f7610f65565b5b906000526020600020906002020160000154905090565b6000600160009054906101000a900473ffffffffffffffffffffffffffffffffffffffff1673ffffffffffffffffffffffffffffffffffffffff166370a08231836040518263ffffffff1660e01b8152600401610a6c9190610ead565b602060405180830381865afa158015610a89573d6000803e3d6000fd5b505050506040513d601f19601f82011682018060405250810190610aad9190610f38565b9050919050565b6000600460008373ffffffffffffffffffffffffffffffffffffffff1673ffffffffffffffffffffffffffffffffffffffff16815260200190815260200160002054600160009054906101000a900473ffffffffffffffffffffffffffffffffffffffff1673ffffffffffffffffffffffffffffffffffffffff16633a46b1a8846000546040518363ffffffff1660e01b8152600401610b55929190611088565b602060405180830381865afa158015610b72573d6000803e3d6000fd5b505050506040513d601f19601f82011682018060405250810190610b969190610f38565b610ba09190611177565b9050919050565b600080fd5b6000819050919050565b610bbf81610bac565b8114610bca57600080fd5b50565b600081359050610bdc81610bb6565b92915050565b600060208284031215610bf857610bf7610ba7565b5b6000610c0684828501610bcd565b91505092915050565b6000819050919050565b610c2281610c0f565b82525050565b610c3181610bac565b82525050565b6000604082019050610c4c6000830185610c19565b610c596020830184610c28565b9392505050565b6000602082019050610c756000830184610c28565b92915050565b600081519050919050565b600082825260208201905092915050565b6000819050602082019050919050565b610cb081610c0f565b82525050565b610cbf81610bac565b82525050565b604082016000820151610cdb6000850182610ca7565b506020820151610cee6020850182610cb6565b50505050565b6000610d008383610cc5565b60408301905092915050565b6000602082019050919050565b6000610d2482610c7b565b610d2e8185610c86565b9350610d3983610c97565b8060005b83811015610d6a578151610d518882610cf4565b9750610d5c83610d0c565b925050600181019050610d3d565b5085935050505092915050565b60006020820190508181036000830152610d918184610d19565b905092915050565b600073ffffffffffffffffffffffffffffffffffffffff82169050919050565b6000819050919050565b6000610dde610dd9610dd484610d99565b610db9565b610d99565b9050919050565b6000610df082610dc3565b9050919050565b6000610e0282610de5565b9050919050565b610e1281610df7565b82525050565b6000602082019050610e2d6000830184610e09565b92915050565b6000610e3e82610d99565b9050919050565b610e4e81610e33565b8114610e5957600080fd5b50565b600081359050610e6b81610e45565b92915050565b600060208284031215610e8757610e86610ba7565b5b6000610e9584828501610e5c565b91505092915050565b610ea781610e33565b82525050565b6000602082019050610ec26000830184610e9e565b92915050565b60008060408385031215610edf57610ede610ba7565b5b6000610eed85828601610bcd565b9250506020610efe85828601610bcd565b9150509250929050565b6000602082019050610f1d6000830184610c19565b92915050565b600081519050610f3281610bb6565b92915050565b600060208284031215610f4e57610f4d610ba7565b5b6000610f5c84828501610f23565b91505092915050565b7f4e487b7100000000000000000000000000000000000000000000000000000000600052603260045260246000fd5b7f4e487b7100000000000000000000000000000000000000000000000000000000600052601160045260246000fd5b6000610fce82610bac565b91507fffffffffffffffffffffffffffffffffffffffffffffffffffffffffffffffff820361100057610fff610f94565b5b600182019050919050565b600082825260208201905092915050565b7f4e6f74206f776e65720000000000000000000000000000000000000000000000600082015250565b600061105260098361100b565b915061105d8261101c565b602082019050919050565b6000602082019050818103600083015261108181611045565b9050919050565b600060408201905061109d6000830185610e9e565b6110aa6020830184610c28565b9392505050565b7f486173206e6f7420656e6f75676820766f74696e6720706f77657220746f207660008201527f6f74650000000000000000000000000000000000000000000000000000000000602082015250565b600061110d60238361100b565b9150611118826110b1565b604082019050919050565b6000602082019050818103600083015261113c81611100565b9050919050565b600061114e82610bac565b915061115983610bac565b925082820190508082111561117157611170610f94565b5b92915050565b600061118282610bac565b915061118d83610bac565b92508282039050818111156111a5576111a4610f94565b5b9291505056fea26469706673582212201d4392fc579184279d3db1b5b47026c19f5f6d9c356d5d1a895f9c7568e10d6e64736f6c63430008110033",
    "linkReferences": {},
    "deployedLinkReferences": {}
}