{
    "_format": "hh-sol-artifact-1",
    "contractName": "TokenizedBallot",
    "sourceName": "contracts/TokenizedBallot.sol",
    "abi": [
        {
            "inputs": [
                {
                    "internalType": "bytes32[]",
                    "name": "proposalNames",
                    "type": "bytes32[]"
                },
                {
                    "internalType": "address",
                    "name": "_tokenContract",
                    "type": "address"
                },
                {
                    "internalType": "uint256",
                    "name": "_referenceBlock",
                    "type": "uint256"
                }
            ],
            "stateMutability": "nonpayable",
            "type": "constructor"
        },
        {
            "inputs": [
                {
                    "internalType": "uint256",
                    "name": "",
                    "type": "uint256"
                }
            ],
            "name": "proposals",
            "outputs": [
                {
                    "internalType": "bytes32",
                    "name": "name",
                    "type": "bytes32"
                },
                {
                    "internalType": "uint256",
                    "name": "voteCount",
                    "type": "uint256"
                }
            ],
            "stateMutability": "view",
            "type": "function"
        },
        {
            "inputs": [],
            "name": "referenceBlock",
            "outputs": [
                {
                    "internalType": "uint256",
                    "name": "",
                    "type": "uint256"
                }
            ],
            "stateMutability": "view",
            "type": "function"
        },
        {
            "inputs": [],
            "name": "tokenContract",
            "outputs": [
                {
                    "internalType": "contract IERC20Votes",
                    "name": "",
                    "type": "address"
                }
            ],
            "stateMutability": "view",
            "type": "function"
        },
        {
            "inputs": [
                {
                    "internalType": "uint256",
                    "name": "proposal",
                    "type": "uint256"
                },
                {
                    "internalType": "uint256",
                    "name": "amount",
                    "type": "uint256"
                }
            ],
            "name": "vote",
            "outputs": [],
            "stateMutability": "nonpayable",
            "type": "function"
        },
        {
            "inputs": [
                {
                    "internalType": "address",
                    "name": "",
                    "type": "address"
                }
            ],
            "name": "votingPowerSpent",
            "outputs": [
                {
                    "internalType": "uint256",
                    "name": "",
                    "type": "uint256"
                }
            ],
            "stateMutability": "view",
            "type": "function"
        },
        {
            "inputs": [],
            "name": "winnerName",
            "outputs": [
                {
                    "internalType": "bytes32",
                    "name": "winnerName_",
                    "type": "bytes32"
                }
            ],
            "stateMutability": "view",
            "type": "function"
        },
        {
            "inputs": [],
            "name": "winningProposal",
            "outputs": [
                {
                    "internalType": "uint256",
                    "name": "winningProposal_",
                    "type": "uint256"
                }
            ],
            "stateMutability": "view",
            "type": "function"
        }
    ],
    "bytecode": "0x60806040523480156200001157600080fd5b5060405162000dd938038062000dd9833981810160405281019062000037919062000384565b60005b8351811015620000ce5760026040518060400160405280868481518110620000675762000066620003ff565b5b6020026020010151815260200160008152509080600181540180825580915050600190039060005260206000209060020201600090919091909150600082015181600001556020820151816001015550508080620000c5906200045d565b9150506200003a565b508060008190555081600160006101000a81548173ffffffffffffffffffffffffffffffffffffffff021916908373ffffffffffffffffffffffffffffffffffffffff160217905550505050620004aa565b6000604051905090565b600080fd5b600080fd5b600080fd5b6000601f19601f8301169050919050565b7f4e487b7100000000000000000000000000000000000000000000000000000000600052604160045260246000fd5b620001848262000139565b810181811067ffffffffffffffff82111715620001a657620001a56200014a565b5b80604052505050565b6000620001bb62000120565b9050620001c9828262000179565b919050565b600067ffffffffffffffff821115620001ec57620001eb6200014a565b5b602082029050602081019050919050565b600080fd5b6000819050919050565b620002178162000202565b81146200022357600080fd5b50565b60008151905062000237816200020c565b92915050565b6000620002546200024e84620001ce565b620001af565b905080838252602082019050602084028301858111156200027a5762000279620001fd565b5b835b81811015620002a7578062000292888262000226565b8452602084019350506020810190506200027c565b5050509392505050565b600082601f830112620002c957620002c862000134565b5b8151620002db8482602086016200023d565b91505092915050565b600073ffffffffffffffffffffffffffffffffffffffff82169050919050565b60006200031182620002e4565b9050919050565b620003238162000304565b81146200032f57600080fd5b50565b600081519050620003438162000318565b92915050565b6000819050919050565b6200035e8162000349565b81146200036a57600080fd5b50565b6000815190506200037e8162000353565b92915050565b600080600060608486031215620003a0576200039f6200012a565b5b600084015167ffffffffffffffff811115620003c157620003c06200012f565b5b620003cf86828701620002b1565b9350506020620003e28682870162000332565b9250506040620003f5868287016200036d565b9150509250925092565b7f4e487b7100000000000000000000000000000000000000000000000000000000600052603260045260246000fd5b7f4e487b7100000000000000000000000000000000000000000000000000000000600052601160045260246000fd5b60006200046a8262000349565b91507fffffffffffffffffffffffffffffffffffffffffffffffffffffffffffffffff82036200049f576200049e6200042e565b5b600182019050919050565b61091f80620004ba6000396000f3fe608060405234801561001057600080fd5b506004361061007d5760003560e01c8063a72003511161005b578063a7200351146100ef578063b384abef1461011f578063d94c8caa1461013b578063e2ba53f0146101595761007d565b8063013cf08b1461008257806355a373d6146100b3578063609ff1bd146100d1575b600080fd5b61009c600480360381019061009791906104c5565b610177565b6040516100aa92919061051a565b60405180910390f35b6100bb6101ab565b6040516100c891906105c2565b60405180910390f35b6100d96101d1565b6040516100e691906105dd565b60405180910390f35b61010960048036038101906101049190610636565b610259565b60405161011691906105dd565b60405180910390f35b61013960048036038101906101349190610663565b610271565b005b610143610358565b60405161015091906105dd565b60405180910390f35b61016161035e565b60405161016e91906106a3565b60405180910390f35b6002818154811061018757600080fd5b90600052602060002090600202016000915090508060000154908060010154905082565b600160009054906101000a900473ffffffffffffffffffffffffffffffffffffffff1681565b6000806000905060005b6002805490508110156102545781600282815481106101fd576101fc6106be565b5b90600052602060002090600202016001015411156102415760028181548110610229576102286106be565b5b90600052602060002090600202016001015491508092505b808061024c9061071c565b9150506101db565b505090565b60036020528060005260406000206000915090505481565b600061027c33610392565b9050818110156102c1576040517f08c379a00000000000000000000000000000000000000000000000000000000081526004016102b8906107e7565b60405180910390fd5b81600360003373ffffffffffffffffffffffffffffffffffffffff1673ffffffffffffffffffffffffffffffffffffffff16815260200190815260200160002060008282546103109190610807565b92505081905550816002848154811061032c5761032b6106be565b5b9060005260206000209060020201600101600082825461034c9190610807565b92505081905550505050565b60005481565b6000600261036a6101d1565b8154811061037b5761037a6106be565b5b906000526020600020906002020160000154905090565b600080600160009054906101000a900473ffffffffffffffffffffffffffffffffffffffff1673ffffffffffffffffffffffffffffffffffffffff16633a46b1a8846000546040518363ffffffff1660e01b81526004016103f492919061084a565b602060405180830381865afa158015610411573d6000803e3d6000fd5b505050506040513d601f19601f820116820180604052508101906104359190610888565b9050600360008473ffffffffffffffffffffffffffffffffffffffff1673ffffffffffffffffffffffffffffffffffffffff168152602001908152602001600020548161048291906108b5565b915050919050565b600080fd5b6000819050919050565b6104a28161048f565b81146104ad57600080fd5b50565b6000813590506104bf81610499565b92915050565b6000602082840312156104db576104da61048a565b5b60006104e9848285016104b0565b91505092915050565b6000819050919050565b610505816104f2565b82525050565b6105148161048f565b82525050565b600060408201905061052f60008301856104fc565b61053c602083018461050b565b9392505050565b600073ffffffffffffffffffffffffffffffffffffffff82169050919050565b6000819050919050565b600061058861058361057e84610543565b610563565b610543565b9050919050565b600061059a8261056d565b9050919050565b60006105ac8261058f565b9050919050565b6105bc816105a1565b82525050565b60006020820190506105d760008301846105b3565b92915050565b60006020820190506105f2600083018461050b565b92915050565b600061060382610543565b9050919050565b610613816105f8565b811461061e57600080fd5b50565b6000813590506106308161060a565b92915050565b60006020828403121561064c5761064b61048a565b5b600061065a84828501610621565b91505092915050565b6000806040838503121561067a5761067961048a565b5b6000610688858286016104b0565b9250506020610699858286016104b0565b9150509250929050565b60006020820190506106b860008301846104fc565b92915050565b7f4e487b7100000000000000000000000000000000000000000000000000000000600052603260045260246000fd5b7f4e487b7100000000000000000000000000000000000000000000000000000000600052601160045260246000fd5b60006107278261048f565b91507fffffffffffffffffffffffffffffffffffffffffffffffffffffffffffffffff8203610759576107586106ed565b5b600182019050919050565b600082825260208201905092915050565b7f486173206e6f7420656e6f75676820766f74696e6720706f77657220746f207660008201527f6f74650000000000000000000000000000000000000000000000000000000000602082015250565b60006107d1602383610764565b91506107dc82610775565b604082019050919050565b60006020820190508181036000830152610800816107c4565b9050919050565b60006108128261048f565b915061081d8361048f565b9250828201905080821115610835576108346106ed565b5b92915050565b610844816105f8565b82525050565b600060408201905061085f600083018561083b565b61086c602083018461050b565b9392505050565b60008151905061088281610499565b92915050565b60006020828403121561089e5761089d61048a565b5b60006108ac84828501610873565b91505092915050565b60006108c08261048f565b91506108cb8361048f565b92508282039050818111156108e3576108e26106ed565b5b9291505056fea264697066735822122048dbda6ea8d4e2dcfa758846b587399cccedbf6a4d3c2e8da564ad53fc448f9e64736f6c63430008110033",
    "linkReferences": {},
    "deployedLinkReferences": {}
}