{
    "_format": "hh-sol-artifact-1",
    "contractName": "MyToken",
    "sourceName": "contracts/ERC20Votes.sol",
    "abi": [
        {
            "inputs": [],
            "stateMutability": "nonpayable",
            "type": "constructor"
        },
        {
            "anonymous": false,
            "inputs": [
                {
                    "indexed": true,
                    "internalType": "address",
                    "name": "owner",
                    "type": "address"
                },
                {
                    "indexed": true,
                    "internalType": "address",
                    "name": "spender",
                    "type": "address"
                },
                {
                    "indexed": false,
                    "internalType": "uint256",
                    "name": "value",
                    "type": "uint256"
                }
            ],
            "name": "Approval",
            "type": "event"
        },
        {
            "anonymous": false,
            "inputs": [
                {
                    "indexed": true,
                    "internalType": "address",
                    "name": "delegator",
                    "type": "address"
                },
                {
                    "indexed": true,
                    "internalType": "address",
                    "name": "fromDelegate",
                    "type": "address"
                },
                {
                    "indexed": true,
                    "internalType": "address",
                    "name": "toDelegate",
                    "type": "address"
                }
            ],
            "name": "DelegateChanged",
            "type": "event"
        },
        {
            "anonymous": false,
            "inputs": [
                {
                    "indexed": true,
                    "internalType": "address",
                    "name": "delegate",
                    "type": "address"
                },
                {
                    "indexed": false,
                    "internalType": "uint256",
                    "name": "previousBalance",
                    "type": "uint256"
                },
                {
                    "indexed": false,
                    "internalType": "uint256",
                    "name": "newBalance",
                    "type": "uint256"
                }
            ],
            "name": "DelegateVotesChanged",
            "type": "event"
        },
        {
            "anonymous": false,
            "inputs": [
                {
                    "indexed": true,
                    "internalType": "bytes32",
                    "name": "role",
                    "type": "bytes32"
                },
                {
                    "indexed": true,
                    "internalType": "bytes32",
                    "name": "previousAdminRole",
                    "type": "bytes32"
                },
                {
                    "indexed": true,
                    "internalType": "bytes32",
                    "name": "newAdminRole",
                    "type": "bytes32"
                }
            ],
            "name": "RoleAdminChanged",
            "type": "event"
        },
        {
            "anonymous": false,
            "inputs": [
                {
                    "indexed": true,
                    "internalType": "bytes32",
                    "name": "role",
                    "type": "bytes32"
                },
                {
                    "indexed": true,
                    "internalType": "address",
                    "name": "account",
                    "type": "address"
                },
                {
                    "indexed": true,
                    "internalType": "address",
                    "name": "sender",
                    "type": "address"
                }
            ],
            "name": "RoleGranted",
            "type": "event"
        },
        {
            "anonymous": false,
            "inputs": [
                {
                    "indexed": true,
                    "internalType": "bytes32",
                    "name": "role",
                    "type": "bytes32"
                },
                {
                    "indexed": true,
                    "internalType": "address",
                    "name": "account",
                    "type": "address"
                },
                {
                    "indexed": true,
                    "internalType": "address",
                    "name": "sender",
                    "type": "address"
                }
            ],
            "name": "RoleRevoked",
            "type": "event"
        },
        {
            "anonymous": false,
            "inputs": [
                {
                    "indexed": true,
                    "internalType": "address",
                    "name": "from",
                    "type": "address"
                },
                {
                    "indexed": true,
                    "internalType": "address",
                    "name": "to",
                    "type": "address"
                },
                {
                    "indexed": false,
                    "internalType": "uint256",
                    "name": "value",
                    "type": "uint256"
                }
            ],
            "name": "Transfer",
            "type": "event"
        },
        {
            "inputs": [],
            "name": "DEFAULT_ADMIN_ROLE",
            "outputs": [
                {
                    "internalType": "bytes32",
                    "name": "",
                    "type": "bytes32"
                }
            ],
            "stateMutability": "view",
            "type": "function"
        },
        {
            "inputs": [],
            "name": "DOMAIN_SEPARATOR",
            "outputs": [
                {
                    "internalType": "bytes32",
                    "name": "",
                    "type": "bytes32"
                }
            ],
            "stateMutability": "view",
            "type": "function"
        },
        {
            "inputs": [],
            "name": "MINTER_ROLE",
            "outputs": [
                {
                    "internalType": "bytes32",
                    "name": "",
                    "type": "bytes32"
                }
            ],
            "stateMutability": "view",
            "type": "function"
        },
        {
            "inputs": [
                {
                    "internalType": "address",
                    "name": "owner",
                    "type": "address"
                },
                {
                    "internalType": "address",
                    "name": "spender",
                    "type": "address"
                }
            ],
            "name": "allowance",
            "outputs": [
                {
                    "internalType": "uint256",
                    "name": "",
                    "type": "uint256"
                }
            ],
            "stateMutability": "view",
            "type": "function"
        },
        {
            "inputs": [
                {
                    "internalType": "address",
                    "name": "spender",
                    "type": "address"
                },
                {
                    "internalType": "uint256",
                    "name": "amount",
                    "type": "uint256"
                }
            ],
            "name": "approve",
            "outputs": [
                {
                    "internalType": "bool",
                    "name": "",
                    "type": "bool"
                }
            ],
            "stateMutability": "nonpayable",
            "type": "function"
        },
        {
            "inputs": [
                {
                    "internalType": "address",
                    "name": "account",
                    "type": "address"
                }
            ],
            "name": "balanceOf",
            "outputs": [
                {
                    "internalType": "uint256",
                    "name": "",
                    "type": "uint256"
                }
            ],
            "stateMutability": "view",
            "type": "function"
        },
        {
            "inputs": [
                {
                    "internalType": "address",
                    "name": "account",
                    "type": "address"
                },
                {
                    "internalType": "uint32",
                    "name": "pos",
                    "type": "uint32"
                }
            ],
            "name": "checkpoints",
            "outputs": [
                {
                    "components": [
                        {
                            "internalType": "uint32",
                            "name": "fromBlock",
                            "type": "uint32"
                        },
                        {
                            "internalType": "uint224",
                            "name": "votes",
                            "type": "uint224"
                        }
                    ],
                    "internalType": "struct ERC20Votes.Checkpoint",
                    "name": "",
                    "type": "tuple"
                }
            ],
            "stateMutability": "view",
            "type": "function"
        },
        {
            "inputs": [],
            "name": "decimals",
            "outputs": [
                {
                    "internalType": "uint8",
                    "name": "",
                    "type": "uint8"
                }
            ],
            "stateMutability": "view",
            "type": "function"
        },
        {
            "inputs": [
                {
                    "internalType": "address",
                    "name": "spender",
                    "type": "address"
                },
                {
                    "internalType": "uint256",
                    "name": "subtractedValue",
                    "type": "uint256"
                }
            ],
            "name": "decreaseAllowance",
            "outputs": [
                {
                    "internalType": "bool",
                    "name": "",
                    "type": "bool"
                }
            ],
            "stateMutability": "nonpayable",
            "type": "function"
        },
        {
            "inputs": [
                {
                    "internalType": "address",
                    "name": "delegatee",
                    "type": "address"
                }
            ],
            "name": "delegate",
            "outputs": [],
            "stateMutability": "nonpayable",
            "type": "function"
        },
        {
            "inputs": [
                {
                    "internalType": "address",
                    "name": "delegatee",
                    "type": "address"
                },
                {
                    "internalType": "uint256",
                    "name": "nonce",
                    "type": "uint256"
                },
                {
                    "internalType": "uint256",
                    "name": "expiry",
                    "type": "uint256"
                },
                {
                    "internalType": "uint8",
                    "name": "v",
                    "type": "uint8"
                },
                {
                    "internalType": "bytes32",
                    "name": "r",
                    "type": "bytes32"
                },
                {
                    "internalType": "bytes32",
                    "name": "s",
                    "type": "bytes32"
                }
            ],
            "name": "delegateBySig",
            "outputs": [],
            "stateMutability": "nonpayable",
            "type": "function"
        },
        {
            "inputs": [
                {
                    "internalType": "address",
                    "name": "account",
                    "type": "address"
                }
            ],
            "name": "delegates",
            "outputs": [
                {
                    "internalType": "address",
                    "name": "",
                    "type": "address"
                }
            ],
            "stateMutability": "view",
            "type": "function"
        },
        {
            "inputs": [
                {
                    "internalType": "uint256",
                    "name": "blockNumber",
                    "type": "uint256"
                }
            ],
            "name": "getPastTotalSupply",
            "outputs": [
                {
                    "internalType": "uint256",
                    "name": "",
                    "type": "uint256"
                }
            ],
            "stateMutability": "view",
            "type": "function"
        },
        {
            "inputs": [
                {
                    "internalType": "address",
                    "name": "account",
                    "type": "address"
                },
                {
                    "internalType": "uint256",
                    "name": "blockNumber",
                    "type": "uint256"
                }
            ],
            "name": "getPastVotes",
            "outputs": [
                {
                    "internalType": "uint256",
                    "name": "",
                    "type": "uint256"
                }
            ],
            "stateMutability": "view",
            "type": "function"
        },
        {
            "inputs": [
                {
                    "internalType": "bytes32",
                    "name": "role",
                    "type": "bytes32"
                }
            ],
            "name": "getRoleAdmin",
            "outputs": [
                {
                    "internalType": "bytes32",
                    "name": "",
                    "type": "bytes32"
                }
            ],
            "stateMutability": "view",
            "type": "function"
        },
        {
            "inputs": [
                {
                    "internalType": "address",
                    "name": "account",
                    "type": "address"
                }
            ],
            "name": "getVotes",
            "outputs": [
                {
                    "internalType": "uint256",
                    "name": "",
                    "type": "uint256"
                }
            ],
            "stateMutability": "view",
            "type": "function"
        },
        {
            "inputs": [
                {
                    "internalType": "bytes32",
                    "name": "role",
                    "type": "bytes32"
                },
                {
                    "internalType": "address",
                    "name": "account",
                    "type": "address"
                }
            ],
            "name": "grantRole",
            "outputs": [],
            "stateMutability": "nonpayable",
            "type": "function"
        },
        {
            "inputs": [
                {
                    "internalType": "bytes32",
                    "name": "role",
                    "type": "bytes32"
                },
                {
                    "internalType": "address",
                    "name": "account",
                    "type": "address"
                }
            ],
            "name": "hasRole",
            "outputs": [
                {
                    "internalType": "bool",
                    "name": "",
                    "type": "bool"
                }
            ],
            "stateMutability": "view",
            "type": "function"
        },
        {
            "inputs": [
                {
                    "internalType": "address",
                    "name": "spender",
                    "type": "address"
                },
                {
                    "internalType": "uint256",
                    "name": "addedValue",
                    "type": "uint256"
                }
            ],
            "name": "increaseAllowance",
            "outputs": [
                {
                    "internalType": "bool",
                    "name": "",
                    "type": "bool"
                }
            ],
            "stateMutability": "nonpayable",
            "type": "function"
        },
        {
            "inputs": [
                {
                    "internalType": "address",
                    "name": "to",
                    "type": "address"
                },
                {
                    "internalType": "uint256",
                    "name": "amount",
                    "type": "uint256"
                }
            ],
            "name": "mint",
            "outputs": [],
            "stateMutability": "nonpayable",
            "type": "function"
        },
        {
            "inputs": [],
            "name": "name",
            "outputs": [
                {
                    "internalType": "string",
                    "name": "",
                    "type": "string"
                }
            ],
            "stateMutability": "view",
            "type": "function"
        },
        {
            "inputs": [
                {
                    "internalType": "address",
                    "name": "owner",
                    "type": "address"
                }
            ],
            "name": "nonces",
            "outputs": [
                {
                    "internalType": "uint256",
                    "name": "",
                    "type": "uint256"
                }
            ],
            "stateMutability": "view",
            "type": "function"
        },
        {
            "inputs": [
                {
                    "internalType": "address",
                    "name": "account",
                    "type": "address"
                }
            ],
            "name": "numCheckpoints",
            "outputs": [
                {
                    "internalType": "uint32",
                    "name": "",
                    "type": "uint32"
                }
            ],
            "stateMutability": "view",
            "type": "function"
        },
        {
            "inputs": [
                {
                    "internalType": "address",
                    "name": "owner",
                    "type": "address"
                },
                {
                    "internalType": "address",
                    "name": "spender",
                    "type": "address"
                },
                {
                    "internalType": "uint256",
                    "name": "value",
                    "type": "uint256"
                },
                {
                    "internalType": "uint256",
                    "name": "deadline",
                    "type": "uint256"
                },
                {
                    "internalType": "uint8",
                    "name": "v",
                    "type": "uint8"
                },
                {
                    "internalType": "bytes32",
                    "name": "r",
                    "type": "bytes32"
                },
                {
                    "internalType": "bytes32",
                    "name": "s",
                    "type": "bytes32"
                }
            ],
            "name": "permit",
            "outputs": [],
            "stateMutability": "nonpayable",
            "type": "function"
        },
        {
            "inputs": [
                {
                    "internalType": "bytes32",
                    "name": "role",
                    "type": "bytes32"
                },
                {
                    "internalType": "address",
                    "name": "account",
                    "type": "address"
                }
            ],
            "name": "renounceRole",
            "outputs": [],
            "stateMutability": "nonpayable",
            "type": "function"
        },
        {
            "inputs": [
                {
                    "internalType": "bytes32",
                    "name": "role",
                    "type": "bytes32"
                },
                {
                    "internalType": "address",
                    "name": "account",
                    "type": "address"
                }
            ],
            "name": "revokeRole",
            "outputs": [],
            "stateMutability": "nonpayable",
            "type": "function"
        },
        {
            "inputs": [
                {
                    "internalType": "bytes4",
                    "name": "interfaceId",
                    "type": "bytes4"
                }
            ],
            "name": "supportsInterface",
            "outputs": [
                {
                    "internalType": "bool",
                    "name": "",
                    "type": "bool"
                }
            ],
            "stateMutability": "view",
            "type": "function"
        },
        {
            "inputs": [],
            "name": "symbol",
            "outputs": [
                {
                    "internalType": "string",
                    "name": "",
                    "type": "string"
                }
            ],
            "stateMutability": "view",
            "type": "function"
        },
        {
            "inputs": [],
            "name": "totalSupply",
            "outputs": [
                {
                    "internalType": "uint256",
                    "name": "",
                    "type": "uint256"
                }
            ],
            "stateMutability": "view",
            "type": "function"
        },
        {
            "inputs": [
                {
                    "internalType": "address",
                    "name": "to",
                    "type": "address"
                },
                {
                    "internalType": "uint256",
                    "name": "amount",
                    "type": "uint256"
                }
            ],
            "name": "transfer",
            "outputs": [
                {
                    "internalType": "bool",
                    "name": "",
                    "type": "bool"
                }
            ],
            "stateMutability": "nonpayable",
            "type": "function"
        },
        {
            "inputs": [
                {
                    "internalType": "address",
                    "name": "from",
                    "type": "address"
                },
                {
                    "internalType": "address",
                    "name": "to",
                    "type": "address"
                },
                {
                    "internalType": "uint256",
                    "name": "amount",
                    "type": "uint256"
                }
            ],
            "name": "transferFrom",
            "outputs": [
                {
                    "internalType": "bool",
                    "name": "",
                    "type": "bool"
                }
            ],
            "stateMutability": "nonpayable",
            "type": "function"
        }
    ],
    "bytecode": "0x6101406040523480156200001257600080fd5b506040518060400160405280600781526020017f4d79546f6b656e00000000000000000000000000000000000000000000000000815250806040518060400160405280600181526020017f31000000000000000000000000000000000000000000000000000000000000008152506040518060400160405280600781526020017f4d79546f6b656e000000000000000000000000000000000000000000000000008152506040518060400160405280600381526020017f4d544b00000000000000000000000000000000000000000000000000000000008152508160039081620000fd91906200062d565b5080600490816200010f91906200062d565b50505060008280519060200120905060008280519060200120905060007f8b73c3c69bb8fe3d512ecc4cf759cc79239f7b179b0ffacaa9a75d522b39400f90508260e081815250508161010081815250504660a081815250506200017b8184846200021260201b60201c565b608081815250503073ffffffffffffffffffffffffffffffffffffffff1660c08173ffffffffffffffffffffffffffffffffffffffff1681525050806101208181525050505050505050620001da6000801b336200024e60201b60201c565b6200020c7f9f2df0fed2c77648de5860a4cc508cd0818c85b8b8a1ab4ceeef8d981c8956a6336200024e60201b60201c565b620007e2565b600083838346306040516020016200022f95949392919062000785565b6040516020818303038152906040528051906020012090509392505050565b6200026082826200034060201b60201c565b6200033c5760016005600084815260200190815260200160002060000160008373ffffffffffffffffffffffffffffffffffffffff1673ffffffffffffffffffffffffffffffffffffffff16815260200190815260200160002060006101000a81548160ff021916908315150217905550620002e1620003ab60201b60201c565b73ffffffffffffffffffffffffffffffffffffffff168173ffffffffffffffffffffffffffffffffffffffff16837f2f8788117e7eff1d82e926ec794901d17c78024a50270940304540a733656f0d60405160405180910390a45b5050565b60006005600084815260200190815260200160002060000160008373ffffffffffffffffffffffffffffffffffffffff1673ffffffffffffffffffffffffffffffffffffffff16815260200190815260200160002060009054906101000a900460ff16905092915050565b600033905090565b600081519050919050565b7f4e487b7100000000000000000000000000000000000000000000000000000000600052604160045260246000fd5b7f4e487b7100000000000000000000000000000000000000000000000000000000600052602260045260246000fd5b600060028204905060018216806200043557607f821691505b6020821081036200044b576200044a620003ed565b5b50919050565b60008190508160005260206000209050919050565b60006020601f8301049050919050565b600082821b905092915050565b600060088302620004b57fffffffffffffffffffffffffffffffffffffffffffffffffffffffffffffffff8262000476565b620004c1868362000476565b95508019841693508086168417925050509392505050565b6000819050919050565b6000819050919050565b60006200050e620005086200050284620004d9565b620004e3565b620004d9565b9050919050565b6000819050919050565b6200052a83620004ed565b62000542620005398262000515565b84845462000483565b825550505050565b600090565b620005596200054a565b620005668184846200051f565b505050565b5b818110156200058e57620005826000826200054f565b6001810190506200056c565b5050565b601f821115620005dd57620005a78162000451565b620005b28462000466565b81016020851015620005c2578190505b620005da620005d18562000466565b8301826200056b565b50505b505050565b600082821c905092915050565b60006200060260001984600802620005e2565b1980831691505092915050565b60006200061d8383620005ef565b9150826002028217905092915050565b6200063882620003b3565b67ffffffffffffffff811115620006545762000653620003be565b5b6200066082546200041c565b6200066d82828562000592565b600060209050601f831160018114620006a5576000841562000690578287015190505b6200069c85826200060f565b8655506200070c565b601f198416620006b58662000451565b60005b82811015620006df57848901518255600182019150602085019450602081019050620006b8565b86831015620006ff5784890151620006fb601f891682620005ef565b8355505b6001600288020188555050505b505050505050565b6000819050919050565b620007298162000714565b82525050565b6200073a81620004d9565b82525050565b600073ffffffffffffffffffffffffffffffffffffffff82169050919050565b60006200076d8262000740565b9050919050565b6200077f8162000760565b82525050565b600060a0820190506200079c60008301886200071e565b620007ab60208301876200071e565b620007ba60408301866200071e565b620007c960608301856200072f565b620007d8608083018462000774565b9695505050505050565b60805160a05160c05160e05161010051610120516143fd6200083260003960006119b8015260006119fa015260006119d90152600061190e015260006119640152600061198d01526143fd6000f3fe608060405234801561001057600080fd5b50600436106101e55760003560e01c80636fcfff451161010f578063a457c2d7116100a2578063d539139311610071578063d539139314610616578063d547741f14610634578063dd62ed3e14610650578063f1127ed814610680576101e5565b8063a457c2d71461057e578063a9059cbb146105ae578063c3cda520146105de578063d505accf146105fa576101e5565b806391d14854116100de57806391d14854146104e257806395d89b41146105125780639ab24eb014610530578063a217fddf14610560576101e5565b80636fcfff451461042257806370a08231146104525780637ecebe00146104825780638e539e8c146104b2576101e5565b8063313ce567116101875780633a46b1a8116101565780633a46b1a81461038a57806340c10f19146103ba578063587cde1e146103d65780635c19a95c14610406576101e5565b8063313ce567146103025780633644e5151461032057806336568abe1461033e578063395093511461035a576101e5565b806318160ddd116101c357806318160ddd1461026857806323b872dd14610286578063248a9ca3146102b65780632f2ff15d146102e6576101e5565b806301ffc9a7146101ea57806306fdde031461021a578063095ea7b314610238575b600080fd5b61020460048036038101906101ff9190612c90565b6106b0565b6040516102119190612cd8565b60405180910390f35b61022261072a565b60405161022f9190612d83565b60405180910390f35b610252600480360381019061024d9190612e39565b6107bc565b60405161025f9190612cd8565b60405180910390f35b6102706107df565b60405161027d9190612e88565b60405180910390f35b6102a0600480360381019061029b9190612ea3565b6107e9565b6040516102ad9190612cd8565b60405180910390f35b6102d060048036038101906102cb9190612f2c565b610818565b6040516102dd9190612f68565b60405180910390f35b61030060048036038101906102fb9190612f83565b610838565b005b61030a610859565b6040516103179190612fdf565b60405180910390f35b610328610862565b6040516103359190612f68565b60405180910390f35b61035860048036038101906103539190612f83565b610871565b005b610374600480360381019061036f9190612e39565b6108f4565b6040516103819190612cd8565b60405180910390f35b6103a4600480360381019061039f9190612e39565b61092b565b6040516103b19190612e88565b60405180910390f35b6103d460048036038101906103cf9190612e39565b6109bf565b005b6103f060048036038101906103eb9190612ffa565b610a3f565b6040516103fd9190613036565b60405180910390f35b610420600480360381019061041b9190612ffa565b610aa8565b005b61043c60048036038101906104379190612ffa565b610abc565b6040516104499190613070565b60405180910390f35b61046c60048036038101906104679190612ffa565b610b10565b6040516104799190612e88565b60405180910390f35b61049c60048036038101906104979190612ffa565b610b58565b6040516104a99190612e88565b60405180910390f35b6104cc60048036038101906104c7919061308b565b610ba8565b6040516104d99190612e88565b60405180910390f35b6104fc60048036038101906104f79190612f83565b610bfe565b6040516105099190612cd8565b60405180910390f35b61051a610c69565b6040516105279190612d83565b60405180910390f35b61054a60048036038101906105459190612ffa565b610cfb565b6040516105579190612e88565b60405180910390f35b610568610e0c565b6040516105759190612f68565b60405180910390f35b61059860048036038101906105939190612e39565b610e13565b6040516105a59190612cd8565b60405180910390f35b6105c860048036038101906105c39190612e39565b610e8a565b6040516105d59190612cd8565b60405180910390f35b6105f860048036038101906105f391906130e4565b610ead565b005b610614600480360381019061060f9190613171565b610fb1565b005b61061e6110f3565b60405161062b9190612f68565b60405180910390f35b61064e60048036038101906106499190612f83565b611117565b005b61066a60048036038101906106659190613213565b611138565b6040516106779190612e88565b60405180910390f35b61069a6004803603810190610695919061327f565b6111bf565b6040516106a79190613334565b60405180910390f35b60007f7965db0b000000000000000000000000000000000000000000000000000000007bffffffffffffffffffffffffffffffffffffffffffffffffffffffff1916827bffffffffffffffffffffffffffffffffffffffffffffffffffffffff191614806107235750610722826112cf565b5b9050919050565b6060600380546107399061337e565b80601f01602080910402602001604051908101604052809291908181526020018280546107659061337e565b80156107b25780601f10610787576101008083540402835291602001916107b2565b820191906000526020600020905b81548152906001019060200180831161079557829003601f168201915b5050505050905090565b6000806107c7611339565b90506107d4818585611341565b600191505092915050565b6000600254905090565b6000806107f4611339565b905061080185828561150a565b61080c858585611596565b60019150509392505050565b600060056000838152602001908152602001600020600101549050919050565b61084182610818565b61084a81611815565b6108548383611829565b505050565b60006012905090565b600061086c61190a565b905090565b610879611339565b73ffffffffffffffffffffffffffffffffffffffff168173ffffffffffffffffffffffffffffffffffffffff16146108e6576040517f08c379a00000000000000000000000000000000000000000000000000000000081526004016108dd90613421565b60405180910390fd5b6108f08282611a24565b5050565b6000806108ff611339565b90506109208185856109118589611138565b61091b9190613470565b611341565b600191505092915050565b600043821061096f576040517f08c379a0000000000000000000000000000000000000000000000000000000008152600401610966906134f0565b60405180910390fd5b6109b7600960008573ffffffffffffffffffffffffffffffffffffffff1673ffffffffffffffffffffffffffffffffffffffff16815260200190815260200160002083611b06565b905092915050565b7f9f2df0fed2c77648de5860a4cc508cd0818c85b8b8a1ab4ceeef8d981c8956a66109e981611815565b6109f38383611c12565b600073ffffffffffffffffffffffffffffffffffffffff16610a1484610a3f565b73ffffffffffffffffffffffffffffffffffffffff1603610a3a57610a398384611c20565b5b505050565b6000600860008373ffffffffffffffffffffffffffffffffffffffff1673ffffffffffffffffffffffffffffffffffffffff16815260200190815260200160002060009054906101000a900473ffffffffffffffffffffffffffffffffffffffff169050919050565b610ab9610ab3611339565b82611c20565b50565b6000610b09600960008473ffffffffffffffffffffffffffffffffffffffff1673ffffffffffffffffffffffffffffffffffffffff16815260200190815260200160002080549050611d3a565b9050919050565b60008060008373ffffffffffffffffffffffffffffffffffffffff1673ffffffffffffffffffffffffffffffffffffffff168152602001908152602001600020549050919050565b6000610ba1600660008473ffffffffffffffffffffffffffffffffffffffff1673ffffffffffffffffffffffffffffffffffffffff168152602001908152602001600020611d8d565b9050919050565b6000438210610bec576040517f08c379a0000000000000000000000000000000000000000000000000000000008152600401610be3906134f0565b60405180910390fd5b610bf7600a83611b06565b9050919050565b60006005600084815260200190815260200160002060000160008373ffffffffffffffffffffffffffffffffffffffff1673ffffffffffffffffffffffffffffffffffffffff16815260200190815260200160002060009054906101000a900460ff16905092915050565b606060048054610c789061337e565b80601f0160208091040260200160405190810160405280929190818152602001828054610ca49061337e565b8015610cf15780601f10610cc657610100808354040283529160200191610cf1565b820191906000526020600020905b815481529060010190602001808311610cd457829003601f168201915b5050505050905090565b600080600960008473ffffffffffffffffffffffffffffffffffffffff1673ffffffffffffffffffffffffffffffffffffffff16815260200190815260200160002080549050905060008114610de357600960008473ffffffffffffffffffffffffffffffffffffffff1673ffffffffffffffffffffffffffffffffffffffff168152602001908152602001600020600182610d979190613510565b81548110610da857610da7613544565b5b9060005260206000200160000160049054906101000a90047bffffffffffffffffffffffffffffffffffffffffffffffffffffffff16610de6565b60005b7bffffffffffffffffffffffffffffffffffffffffffffffffffffffff16915050919050565b6000801b81565b600080610e1e611339565b90506000610e2c8286611138565b905083811015610e71576040517f08c379a0000000000000000000000000000000000000000000000000000000008152600401610e68906135e5565b60405180910390fd5b610e7e8286868403611341565b60019250505092915050565b600080610e95611339565b9050610ea2818585611596565b600191505092915050565b83421115610ef0576040517f08c379a0000000000000000000000000000000000000000000000000000000008152600401610ee790613651565b60405180910390fd5b6000610f52610f4a7fe48329057bfd03d55e49b547132e39cffd9c1820ad7b9d4c5307691425d15adf898989604051602001610f2f9493929190613671565b60405160208183030381529060405280519060200120611d9b565b858585611db5565b9050610f5d81611de0565b8614610f9e576040517f08c379a0000000000000000000000000000000000000000000000000000000008152600401610f9590613702565b60405180910390fd5b610fa88188611c20565b50505050505050565b83421115610ff4576040517f08c379a0000000000000000000000000000000000000000000000000000000008152600401610feb9061376e565b60405180910390fd5b60007f6e71edae12b1b97f4d1f60370fef10105fa2faae0126114a169c64845d6126c98888886110238c611de0565b896040516020016110399695949392919061378e565b604051602081830303815290604052805190602001209050600061105c82611d9b565b9050600061106c82878787611db5565b90508973ffffffffffffffffffffffffffffffffffffffff168173ffffffffffffffffffffffffffffffffffffffff16146110dc576040517f08c379a00000000000000000000000000000000000000000000000000000000081526004016110d39061383b565b60405180910390fd5b6110e78a8a8a611341565b50505050505050505050565b7f9f2df0fed2c77648de5860a4cc508cd0818c85b8b8a1ab4ceeef8d981c8956a681565b61112082610818565b61112981611815565b6111338383611a24565b505050565b6000600160008473ffffffffffffffffffffffffffffffffffffffff1673ffffffffffffffffffffffffffffffffffffffff16815260200190815260200160002060008373ffffffffffffffffffffffffffffffffffffffff1673ffffffffffffffffffffffffffffffffffffffff16815260200190815260200160002054905092915050565b6111c7612bf5565b600960008473ffffffffffffffffffffffffffffffffffffffff1673ffffffffffffffffffffffffffffffffffffffff1681526020019081526020016000208263ffffffff168154811061121e5761121d613544565b5b906000526020600020016040518060400160405290816000820160009054906101000a900463ffffffff1663ffffffff1663ffffffff1681526020016000820160049054906101000a90047bffffffffffffffffffffffffffffffffffffffffffffffffffffffff167bffffffffffffffffffffffffffffffffffffffffffffffffffffffff167bffffffffffffffffffffffffffffffffffffffffffffffffffffffff1681525050905092915050565b60007f01ffc9a7000000000000000000000000000000000000000000000000000000007bffffffffffffffffffffffffffffffffffffffffffffffffffffffff1916827bffffffffffffffffffffffffffffffffffffffffffffffffffffffff1916149050919050565b600033905090565b600073ffffffffffffffffffffffffffffffffffffffff168373ffffffffffffffffffffffffffffffffffffffff16036113b0576040517f08c379a00000000000000000000000000000000000000000000000000000000081526004016113a7906138cd565b60405180910390fd5b600073ffffffffffffffffffffffffffffffffffffffff168273ffffffffffffffffffffffffffffffffffffffff160361141f576040517f08c379a00000000000000000000000000000000000000000000000000000000081526004016114169061395f565b60405180910390fd5b80600160008573ffffffffffffffffffffffffffffffffffffffff1673ffffffffffffffffffffffffffffffffffffffff16815260200190815260200160002060008473ffffffffffffffffffffffffffffffffffffffff1673ffffffffffffffffffffffffffffffffffffffff168152602001908152602001600020819055508173ffffffffffffffffffffffffffffffffffffffff168373ffffffffffffffffffffffffffffffffffffffff167f8c5be1e5ebec7d5bd14f71427d1e84f3dd0314c0f7b2291e5b200ac8c7c3b925836040516114fd9190612e88565b60405180910390a3505050565b60006115168484611138565b90507fffffffffffffffffffffffffffffffffffffffffffffffffffffffffffffffff81146115905781811015611582576040517f08c379a0000000000000000000000000000000000000000000000000000000008152600401611579906139cb565b60405180910390fd5b61158f8484848403611341565b5b50505050565b600073ffffffffffffffffffffffffffffffffffffffff168373ffffffffffffffffffffffffffffffffffffffff1603611605576040517f08c379a00000000000000000000000000000000000000000000000000000000081526004016115fc90613a5d565b60405180910390fd5b600073ffffffffffffffffffffffffffffffffffffffff168273ffffffffffffffffffffffffffffffffffffffff1603611674576040517f08c379a000000000000000000000000000000000000000000000000000000000815260040161166b90613aef565b60405180910390fd5b61167f838383611e3e565b60008060008573ffffffffffffffffffffffffffffffffffffffff1673ffffffffffffffffffffffffffffffffffffffff16815260200190815260200160002054905081811015611705576040517f08c379a00000000000000000000000000000000000000000000000000000000081526004016116fc90613b81565b60405180910390fd5b8181036000808673ffffffffffffffffffffffffffffffffffffffff1673ffffffffffffffffffffffffffffffffffffffff16815260200190815260200160002081905550816000808573ffffffffffffffffffffffffffffffffffffffff1673ffffffffffffffffffffffffffffffffffffffff16815260200190815260200160002060008282546117989190613470565b925050819055508273ffffffffffffffffffffffffffffffffffffffff168473ffffffffffffffffffffffffffffffffffffffff167fddf252ad1be2c89b69c2b068fc378daa952ba7f163c4a11628f55a4df523b3ef846040516117fc9190612e88565b60405180910390a361180f848484611e43565b50505050565b61182681611821611339565b611e53565b50565b6118338282610bfe565b6119065760016005600084815260200190815260200160002060000160008373ffffffffffffffffffffffffffffffffffffffff1673ffffffffffffffffffffffffffffffffffffffff16815260200190815260200160002060006101000a81548160ff0219169083151502179055506118ab611339565b73ffffffffffffffffffffffffffffffffffffffff168173ffffffffffffffffffffffffffffffffffffffff16837f2f8788117e7eff1d82e926ec794901d17c78024a50270940304540a733656f0d60405160405180910390a45b5050565b60007f000000000000000000000000000000000000000000000000000000000000000073ffffffffffffffffffffffffffffffffffffffff163073ffffffffffffffffffffffffffffffffffffffff1614801561198657507f000000000000000000000000000000000000000000000000000000000000000046145b156119b3577f00000000000000000000000000000000000000000000000000000000000000009050611a21565b611a1e7f00000000000000000000000000000000000000000000000000000000000000007f00000000000000000000000000000000000000000000000000000000000000007f0000000000000000000000000000000000000000000000000000000000000000611ef0565b90505b90565b611a2e8282610bfe565b15611b025760006005600084815260200190815260200160002060000160008373ffffffffffffffffffffffffffffffffffffffff1673ffffffffffffffffffffffffffffffffffffffff16815260200190815260200160002060006101000a81548160ff021916908315150217905550611aa7611339565b73ffffffffffffffffffffffffffffffffffffffff168173ffffffffffffffffffffffffffffffffffffffff16837ff6391f5c32d9c69d2a47ea670b442974b53935d1edc7fd64eb21e047a839171b60405160405180910390a45b5050565b6000808380549050905060005b81811015611b85576000611b278284611f2a565b905084868281548110611b3d57611b3c613544565b5b9060005260206000200160000160009054906101000a900463ffffffff1663ffffffff161115611b6f57809250611b7f565b600181611b7c9190613470565b91505b50611b13565b60008214611be75784600183611b9b9190613510565b81548110611bac57611bab613544565b5b9060005260206000200160000160049054906101000a90047bffffffffffffffffffffffffffffffffffffffffffffffffffffffff16611bea565b60005b7bffffffffffffffffffffffffffffffffffffffffffffffffffffffff169250505092915050565b611c1c8282611f50565b5050565b6000611c2b83610a3f565b90506000611c3884610b10565b905082600860008673ffffffffffffffffffffffffffffffffffffffff1673ffffffffffffffffffffffffffffffffffffffff16815260200190815260200160002060006101000a81548173ffffffffffffffffffffffffffffffffffffffff021916908373ffffffffffffffffffffffffffffffffffffffff1602179055508273ffffffffffffffffffffffffffffffffffffffff168273ffffffffffffffffffffffffffffffffffffffff168573ffffffffffffffffffffffffffffffffffffffff167f3134e8a2e6d97e929a7e54011ea5485d7d196dd5f0ba4d4ef95803e8e3fc257f60405160405180910390a4611d34828483611fdd565b50505050565b600063ffffffff8016821115611d85576040517f08c379a0000000000000000000000000000000000000000000000000000000008152600401611d7c90613c13565b60405180910390fd5b819050919050565b600081600001549050919050565b6000611dae611da861190a565b836121d6565b9050919050565b6000806000611dc687878787612209565b91509150611dd381612315565b8192505050949350505050565b600080600660008473ffffffffffffffffffffffffffffffffffffffff1673ffffffffffffffffffffffffffffffffffffffff1681526020019081526020016000209050611e2d81611d8d565b9150611e38816124e1565b50919050565b505050565b611e4e8383836124f7565b505050565b611e5d8282610bfe565b611eec57611e828173ffffffffffffffffffffffffffffffffffffffff166014612522565b611e908360001c6020612522565b604051602001611ea1929190613d07565b6040516020818303038152906040526040517f08c379a0000000000000000000000000000000000000000000000000000000008152600401611ee39190612d83565b60405180910390fd5b5050565b60008383834630604051602001611f0b959493929190613d41565b6040516020818303038152906040528051906020012090509392505050565b60006002828418611f3b9190613dc3565b828416611f489190613470565b905092915050565b611f5a828261275e565b611f626128bd565b7bffffffffffffffffffffffffffffffffffffffffffffffffffffffff16611f886107df565b1115611fc9576040517f08c379a0000000000000000000000000000000000000000000000000000000008152600401611fc090613e66565b60405180910390fd5b611fd7600a6128e1836128f7565b50505050565b8173ffffffffffffffffffffffffffffffffffffffff168373ffffffffffffffffffffffffffffffffffffffff16141580156120195750600081115b156121d157600073ffffffffffffffffffffffffffffffffffffffff168373ffffffffffffffffffffffffffffffffffffffff16146120f7576000806120a0600960008773ffffffffffffffffffffffffffffffffffffffff1673ffffffffffffffffffffffffffffffffffffffff168152602001908152602001600020612b6f856128f7565b915091508473ffffffffffffffffffffffffffffffffffffffff167fdec2bacdd2f05b59de34da9b523dff8be42e5e38e818c82fdb0bae774387a72483836040516120ec929190613e86565b60405180910390a250505b600073ffffffffffffffffffffffffffffffffffffffff168273ffffffffffffffffffffffffffffffffffffffff16146121d057600080612179600960008673ffffffffffffffffffffffffffffffffffffffff1673ffffffffffffffffffffffffffffffffffffffff1681526020019081526020016000206128e1856128f7565b915091508373ffffffffffffffffffffffffffffffffffffffff167fdec2bacdd2f05b59de34da9b523dff8be42e5e38e818c82fdb0bae774387a72483836040516121c5929190613e86565b60405180910390a250505b5b505050565b600082826040516020016121eb929190613f1c565b60405160208183030381529060405280519060200120905092915050565b6000807f7fffffffffffffffffffffffffffffff5d576e7357a4501ddfe92f46681b20a08360001c111561224457600060039150915061230c565b601b8560ff161415801561225c5750601c8560ff1614155b1561226e57600060049150915061230c565b6000600187878787604051600081526020016040526040516122939493929190613f53565b6020604051602081039080840390855afa1580156122b5573d6000803e3d6000fd5b505050602060405103519050600073ffffffffffffffffffffffffffffffffffffffff168173ffffffffffffffffffffffffffffffffffffffff16036123035760006001925092505061230c565b80600092509250505b94509492505050565b6000600481111561232957612328613f98565b5b81600481111561233c5761233b613f98565b5b03156124de576001600481111561235657612355613f98565b5b81600481111561236957612368613f98565b5b036123a9576040517f08c379a00000000000000000000000000000000000000000000000000000000081526004016123a090614013565b60405180910390fd5b600260048111156123bd576123bc613f98565b5b8160048111156123d0576123cf613f98565b5b03612410576040517f08c379a00000000000000000000000000000000000000000000000000000000081526004016124079061407f565b60405180910390fd5b6003600481111561242457612423613f98565b5b81600481111561243757612436613f98565b5b03612477576040517f08c379a000000000000000000000000000000000000000000000000000000000815260040161246e90614111565b60405180910390fd5b60048081111561248a57612489613f98565b5b81600481111561249d5761249c613f98565b5b036124dd576040517f08c379a00000000000000000000000000000000000000000000000000000000081526004016124d4906141a3565b60405180910390fd5b5b50565b6001816000016000828254019250508190555050565b612502838383612b85565b61251d61250e84610a3f565b61251784610a3f565b83611fdd565b505050565b60606000600283600261253591906141c3565b61253f9190613470565b67ffffffffffffffff81111561255857612557614205565b5b6040519080825280601f01601f19166020018201604052801561258a5781602001600182028036833780820191505090505b5090507f3000000000000000000000000000000000000000000000000000000000000000816000815181106125c2576125c1613544565b5b60200101907effffffffffffffffffffffffffffffffffffffffffffffffffffffffffffff1916908160001a9053507f78000000000000000000000000000000000000000000000000000000000000008160018151811061262657612625613544565b5b60200101907effffffffffffffffffffffffffffffffffffffffffffffffffffffffffffff1916908160001a9053506000600184600261266691906141c3565b6126709190613470565b90505b6001811115612710577f3031323334353637383961626364656600000000000000000000000000000000600f8616601081106126b2576126b1613544565b5b1a60f81b8282815181106126c9576126c8613544565b5b60200101907effffffffffffffffffffffffffffffffffffffffffffffffffffffffffffff1916908160001a905350600485901c94508061270990614234565b9050612673565b5060008414612754576040517f08c379a000000000000000000000000000000000000000000000000000000000815260040161274b906142a9565b60405180910390fd5b8091505092915050565b600073ffffffffffffffffffffffffffffffffffffffff168273ffffffffffffffffffffffffffffffffffffffff16036127cd576040517f08c379a00000000000000000000000000000000000000000000000000000000081526004016127c490614315565b60405180910390fd5b6127d960008383611e3e565b80600260008282546127eb9190613470565b92505081905550806000808473ffffffffffffffffffffffffffffffffffffffff1673ffffffffffffffffffffffffffffffffffffffff16815260200190815260200160002060008282546128409190613470565b925050819055508173ffffffffffffffffffffffffffffffffffffffff16600073ffffffffffffffffffffffffffffffffffffffff167fddf252ad1be2c89b69c2b068fc378daa952ba7f163c4a11628f55a4df523b3ef836040516128a59190612e88565b60405180910390a36128b960008383611e43565b5050565b60007bffffffffffffffffffffffffffffffffffffffffffffffffffffffff905090565b600081836128ef9190613470565b905092915050565b6000806000858054905090506000811461296557856001826129199190613510565b8154811061292a57612929613544565b5b9060005260206000200160000160049054906101000a90047bffffffffffffffffffffffffffffffffffffffffffffffffffffffff16612968565b60005b7bffffffffffffffffffffffffffffffffffffffffffffffffffffffff16925061299683858763ffffffff16565b91506000811180156129e9575043866001836129b29190613510565b815481106129c3576129c2613544565b5b9060005260206000200160000160009054906101000a900463ffffffff1663ffffffff16145b15612a76576129f782612b8a565b86600183612a059190613510565b81548110612a1657612a15613544565b5b9060005260206000200160000160046101000a8154817bffffffffffffffffffffffffffffffffffffffffffffffffffffffff02191690837bffffffffffffffffffffffffffffffffffffffffffffffffffffffff160217905550612b66565b856040518060400160405280612a8b43611d3a565b63ffffffff168152602001612a9f85612b8a565b7bffffffffffffffffffffffffffffffffffffffffffffffffffffffff168152509080600181540180825580915050600190039060005260206000200160009091909190915060008201518160000160006101000a81548163ffffffff021916908363ffffffff16021790555060208201518160000160046101000a8154817bffffffffffffffffffffffffffffffffffffffffffffffffffffffff02191690837bffffffffffffffffffffffffffffffffffffffffffffffffffffffff16021790555050505b50935093915050565b60008183612b7d9190613510565b905092915050565b505050565b60007bffffffffffffffffffffffffffffffffffffffffffffffffffffffff8016821115612bed576040517f08c379a0000000000000000000000000000000000000000000000000000000008152600401612be4906143a7565b60405180910390fd5b819050919050565b6040518060400160405280600063ffffffff16815260200160007bffffffffffffffffffffffffffffffffffffffffffffffffffffffff1681525090565b600080fd5b60007fffffffff0000000000000000000000000000000000000000000000000000000082169050919050565b612c6d81612c38565b8114612c7857600080fd5b50565b600081359050612c8a81612c64565b92915050565b600060208284031215612ca657612ca5612c33565b5b6000612cb484828501612c7b565b91505092915050565b60008115159050919050565b612cd281612cbd565b82525050565b6000602082019050612ced6000830184612cc9565b92915050565b600081519050919050565b600082825260208201905092915050565b60005b83811015612d2d578082015181840152602081019050612d12565b60008484015250505050565b6000601f19601f8301169050919050565b6000612d5582612cf3565b612d5f8185612cfe565b9350612d6f818560208601612d0f565b612d7881612d39565b840191505092915050565b60006020820190508181036000830152612d9d8184612d4a565b905092915050565b600073ffffffffffffffffffffffffffffffffffffffff82169050919050565b6000612dd082612da5565b9050919050565b612de081612dc5565b8114612deb57600080fd5b50565b600081359050612dfd81612dd7565b92915050565b6000819050919050565b612e1681612e03565b8114612e2157600080fd5b50565b600081359050612e3381612e0d565b92915050565b60008060408385031215612e5057612e4f612c33565b5b6000612e5e85828601612dee565b9250506020612e6f85828601612e24565b9150509250929050565b612e8281612e03565b82525050565b6000602082019050612e9d6000830184612e79565b92915050565b600080600060608486031215612ebc57612ebb612c33565b5b6000612eca86828701612dee565b9350506020612edb86828701612dee565b9250506040612eec86828701612e24565b9150509250925092565b6000819050919050565b612f0981612ef6565b8114612f1457600080fd5b50565b600081359050612f2681612f00565b92915050565b600060208284031215612f4257612f41612c33565b5b6000612f5084828501612f17565b91505092915050565b612f6281612ef6565b82525050565b6000602082019050612f7d6000830184612f59565b92915050565b60008060408385031215612f9a57612f99612c33565b5b6000612fa885828601612f17565b9250506020612fb985828601612dee565b9150509250929050565b600060ff82169050919050565b612fd981612fc3565b82525050565b6000602082019050612ff46000830184612fd0565b92915050565b6000602082840312156130105761300f612c33565b5b600061301e84828501612dee565b91505092915050565b61303081612dc5565b82525050565b600060208201905061304b6000830184613027565b92915050565b600063ffffffff82169050919050565b61306a81613051565b82525050565b60006020820190506130856000830184613061565b92915050565b6000602082840312156130a1576130a0612c33565b5b60006130af84828501612e24565b91505092915050565b6130c181612fc3565b81146130cc57600080fd5b50565b6000813590506130de816130b8565b92915050565b60008060008060008060c0878903121561310157613100612c33565b5b600061310f89828a01612dee565b965050602061312089828a01612e24565b955050604061313189828a01612e24565b945050606061314289828a016130cf565b935050608061315389828a01612f17565b92505060a061316489828a01612f17565b9150509295509295509295565b600080600080600080600060e0888a0312156131905761318f612c33565b5b600061319e8a828b01612dee565b97505060206131af8a828b01612dee565b96505060406131c08a828b01612e24565b95505060606131d18a828b01612e24565b94505060806131e28a828b016130cf565b93505060a06131f38a828b01612f17565b92505060c06132048a828b01612f17565b91505092959891949750929550565b6000806040838503121561322a57613229612c33565b5b600061323885828601612dee565b925050602061324985828601612dee565b9150509250929050565b61325c81613051565b811461326757600080fd5b50565b60008135905061327981613253565b92915050565b6000806040838503121561329657613295612c33565b5b60006132a485828601612dee565b92505060206132b58582860161326a565b9150509250929050565b6132c881613051565b82525050565b60007bffffffffffffffffffffffffffffffffffffffffffffffffffffffff82169050919050565b6132ff816132ce565b82525050565b60408201600082015161331b60008501826132bf565b50602082015161332e60208501826132f6565b50505050565b60006040820190506133496000830184613305565b92915050565b7f4e487b7100000000000000000000000000000000000000000000000000000000600052602260045260246000fd5b6000600282049050600182168061339657607f821691505b6020821081036133a9576133a861334f565b5b50919050565b7f416363657373436f6e74726f6c3a2063616e206f6e6c792072656e6f756e636560008201527f20726f6c657320666f722073656c660000000000000000000000000000000000602082015250565b600061340b602f83612cfe565b9150613416826133af565b604082019050919050565b6000602082019050818103600083015261343a816133fe565b9050919050565b7f4e487b7100000000000000000000000000000000000000000000000000000000600052601160045260246000fd5b600061347b82612e03565b915061348683612e03565b925082820190508082111561349e5761349d613441565b5b92915050565b7f4552433230566f7465733a20626c6f636b206e6f7420796574206d696e656400600082015250565b60006134da601f83612cfe565b91506134e5826134a4565b602082019050919050565b60006020820190508181036000830152613509816134cd565b9050919050565b600061351b82612e03565b915061352683612e03565b925082820390508181111561353e5761353d613441565b5b92915050565b7f4e487b7100000000000000000000000000000000000000000000000000000000600052603260045260246000fd5b7f45524332303a2064656372656173656420616c6c6f77616e63652062656c6f7760008201527f207a65726f000000000000000000000000000000000000000000000000000000602082015250565b60006135cf602583612cfe565b91506135da82613573565b604082019050919050565b600060208201905081810360008301526135fe816135c2565b9050919050565b7f4552433230566f7465733a207369676e61747572652065787069726564000000600082015250565b600061363b601d83612cfe565b915061364682613605565b602082019050919050565b6000602082019050818103600083015261366a8161362e565b9050919050565b60006080820190506136866000830187612f59565b6136936020830186613027565b6136a06040830185612e79565b6136ad6060830184612e79565b95945050505050565b7f4552433230566f7465733a20696e76616c6964206e6f6e636500000000000000600082015250565b60006136ec601983612cfe565b91506136f7826136b6565b602082019050919050565b6000602082019050818103600083015261371b816136df565b9050919050565b7f45524332305065726d69743a206578706972656420646561646c696e65000000600082015250565b6000613758601d83612cfe565b915061376382613722565b602082019050919050565b600060208201905081810360008301526137878161374b565b9050919050565b600060c0820190506137a36000830189612f59565b6137b06020830188613027565b6137bd6040830187613027565b6137ca6060830186612e79565b6137d76080830185612e79565b6137e460a0830184612e79565b979650505050505050565b7f45524332305065726d69743a20696e76616c6964207369676e61747572650000600082015250565b6000613825601e83612cfe565b9150613830826137ef565b602082019050919050565b6000602082019050818103600083015261385481613818565b9050919050565b7f45524332303a20617070726f76652066726f6d20746865207a65726f2061646460008201527f7265737300000000000000000000000000000000000000000000000000000000602082015250565b60006138b7602483612cfe565b91506138c28261385b565b604082019050919050565b600060208201905081810360008301526138e6816138aa565b9050919050565b7f45524332303a20617070726f766520746f20746865207a65726f20616464726560008201527f7373000000000000000000000000000000000000000000000000000000000000602082015250565b6000613949602283612cfe565b9150613954826138ed565b604082019050919050565b600060208201905081810360008301526139788161393c565b9050919050565b7f45524332303a20696e73756666696369656e7420616c6c6f77616e6365000000600082015250565b60006139b5601d83612cfe565b91506139c08261397f565b602082019050919050565b600060208201905081810360008301526139e4816139a8565b9050919050565b7f45524332303a207472616e736665722066726f6d20746865207a65726f20616460008201527f6472657373000000000000000000000000000000000000000000000000000000602082015250565b6000613a47602583612cfe565b9150613a52826139eb565b604082019050919050565b60006020820190508181036000830152613a7681613a3a565b9050919050565b7f45524332303a207472616e7366657220746f20746865207a65726f206164647260008201527f6573730000000000000000000000000000000000000000000000000000000000602082015250565b6000613ad9602383612cfe565b9150613ae482613a7d565b604082019050919050565b60006020820190508181036000830152613b0881613acc565b9050919050565b7f45524332303a207472616e7366657220616d6f756e742065786365656473206260008201527f616c616e63650000000000000000000000000000000000000000000000000000602082015250565b6000613b6b602683612cfe565b9150613b7682613b0f565b604082019050919050565b60006020820190508181036000830152613b9a81613b5e565b9050919050565b7f53616665436173743a2076616c756520646f65736e27742066697420696e203360008201527f3220626974730000000000000000000000000000000000000000000000000000602082015250565b6000613bfd602683612cfe565b9150613c0882613ba1565b604082019050919050565b60006020820190508181036000830152613c2c81613bf0565b9050919050565b600081905092915050565b7f416363657373436f6e74726f6c3a206163636f756e7420000000000000000000600082015250565b6000613c74601783613c33565b9150613c7f82613c3e565b601782019050919050565b6000613c9582612cf3565b613c9f8185613c33565b9350613caf818560208601612d0f565b80840191505092915050565b7f206973206d697373696e6720726f6c6520000000000000000000000000000000600082015250565b6000613cf1601183613c33565b9150613cfc82613cbb565b601182019050919050565b6000613d1282613c67565b9150613d1e8285613c8a565b9150613d2982613ce4565b9150613d358284613c8a565b91508190509392505050565b600060a082019050613d566000830188612f59565b613d636020830187612f59565b613d706040830186612f59565b613d7d6060830185612e79565b613d8a6080830184613027565b9695505050505050565b7f4e487b7100000000000000000000000000000000000000000000000000000000600052601260045260246000fd5b6000613dce82612e03565b9150613dd983612e03565b925082613de957613de8613d94565b5b828204905092915050565b7f4552433230566f7465733a20746f74616c20737570706c79207269736b73206f60008201527f766572666c6f77696e6720766f74657300000000000000000000000000000000602082015250565b6000613e50603083612cfe565b9150613e5b82613df4565b604082019050919050565b60006020820190508181036000830152613e7f81613e43565b9050919050565b6000604082019050613e9b6000830185612e79565b613ea86020830184612e79565b9392505050565b7f1901000000000000000000000000000000000000000000000000000000000000600082015250565b6000613ee5600283613c33565b9150613ef082613eaf565b600282019050919050565b6000819050919050565b613f16613f1182612ef6565b613efb565b82525050565b6000613f2782613ed8565b9150613f338285613f05565b602082019150613f438284613f05565b6020820191508190509392505050565b6000608082019050613f686000830187612f59565b613f756020830186612fd0565b613f826040830185612f59565b613f8f6060830184612f59565b95945050505050565b7f4e487b7100000000000000000000000000000000000000000000000000000000600052602160045260246000fd5b7f45434453413a20696e76616c6964207369676e61747572650000000000000000600082015250565b6000613ffd601883612cfe565b915061400882613fc7565b602082019050919050565b6000602082019050818103600083015261402c81613ff0565b9050919050565b7f45434453413a20696e76616c6964207369676e6174757265206c656e67746800600082015250565b6000614069601f83612cfe565b915061407482614033565b602082019050919050565b600060208201905081810360008301526140988161405c565b9050919050565b7f45434453413a20696e76616c6964207369676e6174757265202773272076616c60008201527f7565000000000000000000000000000000000000000000000000000000000000602082015250565b60006140fb602283612cfe565b91506141068261409f565b604082019050919050565b6000602082019050818103600083015261412a816140ee565b9050919050565b7f45434453413a20696e76616c6964207369676e6174757265202776272076616c60008201527f7565000000000000000000000000000000000000000000000000000000000000602082015250565b600061418d602283612cfe565b915061419882614131565b604082019050919050565b600060208201905081810360008301526141bc81614180565b9050919050565b60006141ce82612e03565b91506141d983612e03565b92508282026141e781612e03565b915082820484148315176141fe576141fd613441565b5b5092915050565b7f4e487b7100000000000000000000000000000000000000000000000000000000600052604160045260246000fd5b600061423f82612e03565b91506000820361425257614251613441565b5b600182039050919050565b7f537472696e67733a20686578206c656e67746820696e73756666696369656e74600082015250565b6000614293602083612cfe565b915061429e8261425d565b602082019050919050565b600060208201905081810360008301526142c281614286565b9050919050565b7f45524332303a206d696e7420746f20746865207a65726f206164647265737300600082015250565b60006142ff601f83612cfe565b915061430a826142c9565b602082019050919050565b6000602082019050818103600083015261432e816142f2565b9050919050565b7f53616665436173743a2076616c756520646f65736e27742066697420696e203260008201527f3234206269747300000000000000000000000000000000000000000000000000602082015250565b6000614391602783612cfe565b915061439c82614335565b604082019050919050565b600060208201905081810360008301526143c081614384565b905091905056fea26469706673582212204b7cdaf717d910e459dbb02240bfe581f8cddd565b25dae483b113d4ad75918764736f6c63430008110033",
    "linkReferences": {},
    "deployedLinkReferences": {}
}